{
  "_format": "hh-sol-artifact-1",
  "contractName": "Vault",
  "sourceName": "contracts/vaults/Vault.sol",
  "abi": [
    {
      "inputs": [
        {
          "internalType": "address",
          "name": "asset",
          "type": "address"
        },
        {
          "internalType": "address",
          "name": "governanceAddress",
          "type": "address"
        },
        {
          "internalType": "address",
          "name": "timelockAddress",
          "type": "address"
        },
        {
          "internalType": "address",
          "name": "controllerAddress",
          "type": "address"
        }
      ],
      "stateMutability": "nonpayable",
      "type": "constructor"
    },
    {
      "inputs": [
        {
          "internalType": "address",
          "name": "target",
          "type": "address"
        }
      ],
      "name": "AddressEmptyCode",
      "type": "error"
    },
    {
      "inputs": [
        {
          "internalType": "address",
          "name": "account",
          "type": "address"
        }
      ],
      "name": "AddressInsufficientBalance",
      "type": "error"
    },
    {
      "inputs": [],
      "name": "CannotHarvestAsset",
      "type": "error"
    },
    {
      "inputs": [
        {
          "internalType": "address",
          "name": "spender",
          "type": "address"
        },
        {
          "internalType": "uint256",
          "name": "allowance",
          "type": "uint256"
        },
        {
          "internalType": "uint256",
          "name": "needed",
          "type": "uint256"
        }
      ],
      "name": "ERC20InsufficientAllowance",
      "type": "error"
    },
    {
      "inputs": [
        {
          "internalType": "address",
          "name": "sender",
          "type": "address"
        },
        {
          "internalType": "uint256",
          "name": "balance",
          "type": "uint256"
        },
        {
          "internalType": "uint256",
          "name": "needed",
          "type": "uint256"
        }
      ],
      "name": "ERC20InsufficientBalance",
      "type": "error"
    },
    {
      "inputs": [
        {
          "internalType": "address",
          "name": "approver",
          "type": "address"
        }
      ],
      "name": "ERC20InvalidApprover",
      "type": "error"
    },
    {
      "inputs": [
        {
          "internalType": "address",
          "name": "receiver",
          "type": "address"
        }
      ],
      "name": "ERC20InvalidReceiver",
      "type": "error"
    },
    {
      "inputs": [
        {
          "internalType": "address",
          "name": "sender",
          "type": "address"
        }
      ],
      "name": "ERC20InvalidSender",
      "type": "error"
    },
    {
      "inputs": [
        {
          "internalType": "address",
          "name": "spender",
          "type": "address"
        }
      ],
      "name": "ERC20InvalidSpender",
      "type": "error"
    },
    {
      "inputs": [
        {
          "internalType": "address",
          "name": "receiver",
          "type": "address"
        },
        {
          "internalType": "uint256",
          "name": "assets",
          "type": "uint256"
        },
        {
          "internalType": "uint256",
          "name": "max",
          "type": "uint256"
        }
      ],
      "name": "ERC4626ExceededMaxDeposit",
      "type": "error"
    },
    {
      "inputs": [
        {
          "internalType": "address",
          "name": "receiver",
          "type": "address"
        },
        {
          "internalType": "uint256",
          "name": "shares",
          "type": "uint256"
        },
        {
          "internalType": "uint256",
          "name": "max",
          "type": "uint256"
        }
      ],
      "name": "ERC4626ExceededMaxMint",
      "type": "error"
    },
    {
      "inputs": [
        {
          "internalType": "address",
          "name": "owner",
          "type": "address"
        },
        {
          "internalType": "uint256",
          "name": "shares",
          "type": "uint256"
        },
        {
          "internalType": "uint256",
          "name": "max",
          "type": "uint256"
        }
      ],
      "name": "ERC4626ExceededMaxRedeem",
      "type": "error"
    },
    {
      "inputs": [
        {
          "internalType": "address",
          "name": "owner",
          "type": "address"
        },
        {
          "internalType": "uint256",
          "name": "assets",
          "type": "uint256"
        },
        {
          "internalType": "uint256",
          "name": "max",
          "type": "uint256"
        }
      ],
      "name": "ERC4626ExceededMaxWithdraw",
      "type": "error"
    },
    {
      "inputs": [],
      "name": "FailedInnerCall",
      "type": "error"
    },
    {
      "inputs": [
        {
          "internalType": "uint256",
          "name": "assets",
          "type": "uint256"
        },
        {
          "internalType": "uint256",
          "name": "minAssets",
          "type": "uint256"
        }
      ],
      "name": "InsufficientOutputAssets",
      "type": "error"
    },
    {
      "inputs": [
        {
          "internalType": "uint256",
          "name": "shares",
          "type": "uint256"
        },
        {
          "internalType": "uint256",
          "name": "minShares",
          "type": "uint256"
        }
      ],
      "name": "InsufficientOutputShares",
      "type": "error"
    },
    {
      "inputs": [],
      "name": "MathOverflowedMulDiv",
      "type": "error"
    },
    {
      "inputs": [],
      "name": "MinGreaterThanMax",
      "type": "error"
    },
    {
      "inputs": [],
      "name": "NotController",
      "type": "error"
    },
    {
      "inputs": [],
      "name": "NotGovernance",
      "type": "error"
    },
    {
      "inputs": [],
      "name": "NotTimelock",
      "type": "error"
    },
    {
      "inputs": [
        {
          "internalType": "address",
          "name": "token",
          "type": "address"
        }
      ],
      "name": "SafeERC20FailedOperation",
      "type": "error"
    },
    {
      "inputs": [],
      "name": "ZeroAddress",
      "type": "error"
    },
    {
      "anonymous": false,
      "inputs": [
        {
          "indexed": true,
          "internalType": "address",
          "name": "owner",
          "type": "address"
        },
        {
          "indexed": true,
          "internalType": "address",
          "name": "spender",
          "type": "address"
        },
        {
          "indexed": false,
          "internalType": "uint256",
          "name": "value",
          "type": "uint256"
        }
      ],
      "name": "Approval",
      "type": "event"
    },
    {
      "anonymous": false,
      "inputs": [
        {
          "indexed": true,
          "internalType": "address",
          "name": "oldController",
          "type": "address"
        },
        {
          "indexed": true,
          "internalType": "address",
          "name": "newController",
          "type": "address"
        }
      ],
      "name": "ControllerChanged",
      "type": "event"
    },
    {
      "anonymous": false,
      "inputs": [
        {
          "indexed": true,
          "internalType": "address",
          "name": "sender",
          "type": "address"
        },
        {
          "indexed": true,
          "internalType": "address",
          "name": "owner",
          "type": "address"
        },
        {
          "indexed": false,
          "internalType": "uint256",
          "name": "assets",
          "type": "uint256"
        },
        {
          "indexed": false,
          "internalType": "uint256",
          "name": "shares",
          "type": "uint256"
        }
      ],
      "name": "Deposit",
      "type": "event"
    },
    {
      "anonymous": false,
      "inputs": [
        {
          "indexed": true,
          "internalType": "address",
          "name": "oldGovernance",
          "type": "address"
        },
        {
          "indexed": true,
          "internalType": "address",
          "name": "newGovernance",
          "type": "address"
        }
      ],
      "name": "GovernanceChanged",
      "type": "event"
    },
    {
      "anonymous": false,
      "inputs": [
        {
          "indexed": false,
          "internalType": "uint256",
          "name": "oldMin",
          "type": "uint256"
        },
        {
          "indexed": false,
          "internalType": "uint256",
          "name": "newMin",
          "type": "uint256"
        }
      ],
      "name": "MinChanged",
      "type": "event"
    },
    {
      "anonymous": false,
      "inputs": [
        {
          "indexed": true,
          "internalType": "address",
          "name": "oldTimelock",
          "type": "address"
        },
        {
          "indexed": true,
          "internalType": "address",
          "name": "newTimelock",
          "type": "address"
        }
      ],
      "name": "TimelockChanged",
      "type": "event"
    },
    {
      "anonymous": false,
      "inputs": [
        {
          "indexed": true,
          "internalType": "address",
          "name": "from",
          "type": "address"
        },
        {
          "indexed": true,
          "internalType": "address",
          "name": "to",
          "type": "address"
        },
        {
          "indexed": false,
          "internalType": "uint256",
          "name": "value",
          "type": "uint256"
        }
      ],
      "name": "Transfer",
      "type": "event"
    },
    {
      "anonymous": false,
      "inputs": [
        {
          "indexed": true,
          "internalType": "address",
          "name": "sender",
          "type": "address"
        },
        {
          "indexed": true,
          "internalType": "address",
          "name": "receiver",
          "type": "address"
        },
        {
          "indexed": true,
          "internalType": "address",
          "name": "owner",
          "type": "address"
        },
        {
          "indexed": false,
          "internalType": "uint256",
          "name": "assets",
          "type": "uint256"
        },
        {
          "indexed": false,
          "internalType": "uint256",
          "name": "shares",
          "type": "uint256"
        }
      ],
      "name": "Withdraw",
      "type": "event"
    },
    {
      "inputs": [],
      "name": "MAX_DENOMINATOR",
      "outputs": [
        {
          "internalType": "uint256",
          "name": "",
          "type": "uint256"
        }
      ],
      "stateMutability": "view",
      "type": "function"
    },
    {
      "inputs": [
        {
          "internalType": "address",
          "name": "owner",
          "type": "address"
        },
        {
          "internalType": "address",
          "name": "spender",
          "type": "address"
        }
      ],
      "name": "allowance",
      "outputs": [
        {
          "internalType": "uint256",
          "name": "",
          "type": "uint256"
        }
      ],
      "stateMutability": "view",
      "type": "function"
    },
    {
      "inputs": [
        {
          "internalType": "address",
          "name": "spender",
          "type": "address"
        },
        {
          "internalType": "uint256",
          "name": "value",
          "type": "uint256"
        }
      ],
      "name": "approve",
      "outputs": [
        {
          "internalType": "bool",
          "name": "",
          "type": "bool"
        }
      ],
      "stateMutability": "nonpayable",
      "type": "function"
    },
    {
      "inputs": [],
      "name": "asset",
      "outputs": [
        {
          "internalType": "address",
          "name": "",
          "type": "address"
        }
      ],
      "stateMutability": "view",
      "type": "function"
    },
    {
      "inputs": [],
      "name": "available",
      "outputs": [
        {
          "internalType": "uint256",
          "name": "",
          "type": "uint256"
        }
      ],
      "stateMutability": "view",
      "type": "function"
    },
    {
      "inputs": [
        {
          "internalType": "address",
          "name": "account",
          "type": "address"
        }
      ],
      "name": "balanceOf",
      "outputs": [
        {
          "internalType": "uint256",
          "name": "",
          "type": "uint256"
        }
      ],
      "stateMutability": "view",
      "type": "function"
    },
    {
      "inputs": [],
      "name": "controller",
      "outputs": [
        {
          "internalType": "address",
          "name": "",
          "type": "address"
        }
      ],
      "stateMutability": "view",
      "type": "function"
    },
    {
      "inputs": [
        {
          "internalType": "uint256",
          "name": "shares",
          "type": "uint256"
        }
      ],
      "name": "convertToAssets",
      "outputs": [
        {
          "internalType": "uint256",
          "name": "",
          "type": "uint256"
        }
      ],
      "stateMutability": "view",
      "type": "function"
    },
    {
      "inputs": [
        {
          "internalType": "uint256",
          "name": "assets",
          "type": "uint256"
        }
      ],
      "name": "convertToShares",
      "outputs": [
        {
          "internalType": "uint256",
          "name": "",
          "type": "uint256"
        }
      ],
      "stateMutability": "view",
      "type": "function"
    },
    {
      "inputs": [],
      "name": "decimals",
      "outputs": [
        {
          "internalType": "uint8",
          "name": "",
          "type": "uint8"
        }
      ],
      "stateMutability": "view",
      "type": "function"
    },
    {
      "inputs": [
        {
          "internalType": "uint256",
          "name": "assets",
          "type": "uint256"
        },
        {
          "internalType": "address",
          "name": "receiver",
          "type": "address"
        }
      ],
      "name": "deposit",
      "outputs": [
        {
          "internalType": "uint256",
          "name": "",
          "type": "uint256"
        }
      ],
      "stateMutability": "nonpayable",
      "type": "function"
    },
    {
      "inputs": [
        {
          "internalType": "uint256",
          "name": "assets",
          "type": "uint256"
        },
        {
          "internalType": "address",
          "name": "receiver",
          "type": "address"
        },
        {
          "internalType": "uint256",
          "name": "minShares",
          "type": "uint256"
        }
      ],
      "name": "deposit",
      "outputs": [
        {
          "internalType": "uint256",
          "name": "shares",
          "type": "uint256"
        }
      ],
      "stateMutability": "nonpayable",
      "type": "function"
    },
    {
      "inputs": [],
      "name": "earn",
      "outputs": [],
      "stateMutability": "nonpayable",
      "type": "function"
    },
    {
      "inputs": [],
      "name": "governance",
      "outputs": [
        {
          "internalType": "address",
          "name": "",
          "type": "address"
        }
      ],
      "stateMutability": "view",
      "type": "function"
    },
    {
      "inputs": [
        {
          "internalType": "address",
          "name": "token",
          "type": "address"
        },
        {
          "internalType": "uint256",
          "name": "amount",
          "type": "uint256"
        }
      ],
      "name": "harvest",
      "outputs": [],
      "stateMutability": "nonpayable",
      "type": "function"
    },
    {
      "inputs": [
        {
          "internalType": "address",
          "name": "",
          "type": "address"
        }
      ],
      "name": "maxDeposit",
      "outputs": [
        {
          "internalType": "uint256",
          "name": "",
          "type": "uint256"
        }
      ],
      "stateMutability": "view",
      "type": "function"
    },
    {
      "inputs": [
        {
          "internalType": "address",
          "name": "",
          "type": "address"
        }
      ],
      "name": "maxMint",
      "outputs": [
        {
          "internalType": "uint256",
          "name": "",
          "type": "uint256"
        }
      ],
      "stateMutability": "view",
      "type": "function"
    },
    {
      "inputs": [
        {
          "internalType": "address",
          "name": "owner",
          "type": "address"
        }
      ],
      "name": "maxRedeem",
      "outputs": [
        {
          "internalType": "uint256",
          "name": "",
          "type": "uint256"
        }
      ],
      "stateMutability": "view",
      "type": "function"
    },
    {
      "inputs": [
        {
          "internalType": "address",
          "name": "owner",
          "type": "address"
        }
      ],
      "name": "maxWithdraw",
      "outputs": [
        {
          "internalType": "uint256",
          "name": "",
          "type": "uint256"
        }
      ],
      "stateMutability": "view",
      "type": "function"
    },
    {
      "inputs": [],
      "name": "min",
      "outputs": [
        {
          "internalType": "uint256",
          "name": "",
          "type": "uint256"
        }
      ],
      "stateMutability": "view",
      "type": "function"
    },
    {
      "inputs": [
        {
          "internalType": "uint256",
          "name": "shares",
          "type": "uint256"
        },
        {
          "internalType": "address",
          "name": "receiver",
          "type": "address"
        }
      ],
      "name": "mint",
      "outputs": [
        {
          "internalType": "uint256",
          "name": "",
          "type": "uint256"
        }
      ],
      "stateMutability": "nonpayable",
      "type": "function"
    },
    {
      "inputs": [],
      "name": "name",
      "outputs": [
        {
          "internalType": "string",
          "name": "",
          "type": "string"
        }
      ],
      "stateMutability": "view",
      "type": "function"
    },
    {
      "inputs": [
        {
          "internalType": "uint256",
          "name": "assets",
          "type": "uint256"
        }
      ],
      "name": "previewDeposit",
      "outputs": [
        {
          "internalType": "uint256",
          "name": "",
          "type": "uint256"
        }
      ],
      "stateMutability": "view",
      "type": "function"
    },
    {
      "inputs": [
        {
          "internalType": "uint256",
          "name": "shares",
          "type": "uint256"
        }
      ],
      "name": "previewMint",
      "outputs": [
        {
          "internalType": "uint256",
          "name": "",
          "type": "uint256"
        }
      ],
      "stateMutability": "view",
      "type": "function"
    },
    {
      "inputs": [
        {
          "internalType": "uint256",
          "name": "shares",
          "type": "uint256"
        }
      ],
      "name": "previewRedeem",
      "outputs": [
        {
          "internalType": "uint256",
          "name": "",
          "type": "uint256"
        }
      ],
      "stateMutability": "view",
      "type": "function"
    },
    {
      "inputs": [
        {
          "internalType": "uint256",
          "name": "assets",
          "type": "uint256"
        }
      ],
      "name": "previewWithdraw",
      "outputs": [
        {
          "internalType": "uint256",
          "name": "",
          "type": "uint256"
        }
      ],
      "stateMutability": "view",
      "type": "function"
    },
    {
      "inputs": [
        {
          "internalType": "uint256",
          "name": "shares",
          "type": "uint256"
        },
        {
          "internalType": "address",
          "name": "receiver",
          "type": "address"
        },
        {
          "internalType": "address",
          "name": "owner",
          "type": "address"
        },
        {
          "internalType": "uint256",
          "name": "minAssets",
          "type": "uint256"
        }
      ],
      "name": "redeem",
      "outputs": [
        {
          "internalType": "uint256",
          "name": "assets",
          "type": "uint256"
        }
      ],
      "stateMutability": "nonpayable",
      "type": "function"
    },
    {
      "inputs": [
        {
          "internalType": "uint256",
          "name": "shares",
          "type": "uint256"
        },
        {
          "internalType": "address",
          "name": "receiver",
          "type": "address"
        },
        {
          "internalType": "address",
          "name": "owner",
          "type": "address"
        }
      ],
      "name": "redeem",
      "outputs": [
        {
          "internalType": "uint256",
          "name": "",
          "type": "uint256"
        }
      ],
      "stateMutability": "nonpayable",
      "type": "function"
    },
    {
      "inputs": [
        {
          "internalType": "address",
          "name": "controllerAddress",
          "type": "address"
        }
      ],
      "name": "setController",
      "outputs": [],
      "stateMutability": "nonpayable",
      "type": "function"
    },
    {
      "inputs": [
        {
          "internalType": "address",
          "name": "governanceAddress",
          "type": "address"
        }
      ],
      "name": "setGovernance",
      "outputs": [],
      "stateMutability": "nonpayable",
      "type": "function"
    },
    {
      "inputs": [
        {
          "internalType": "uint256",
          "name": "minRatio",
          "type": "uint256"
        }
      ],
      "name": "setMin",
      "outputs": [],
      "stateMutability": "nonpayable",
      "type": "function"
    },
    {
      "inputs": [
        {
          "internalType": "address",
          "name": "timelockAddress",
          "type": "address"
        }
      ],
      "name": "setTimelock",
      "outputs": [],
      "stateMutability": "nonpayable",
      "type": "function"
    },
    {
      "inputs": [],
      "name": "symbol",
      "outputs": [
        {
          "internalType": "string",
          "name": "",
          "type": "string"
        }
      ],
      "stateMutability": "view",
      "type": "function"
    },
    {
      "inputs": [],
      "name": "timelock",
      "outputs": [
        {
          "internalType": "address",
          "name": "",
          "type": "address"
        }
      ],
      "stateMutability": "view",
      "type": "function"
    },
    {
      "inputs": [],
      "name": "totalAssets",
      "outputs": [
        {
          "internalType": "uint256",
          "name": "",
          "type": "uint256"
        }
      ],
      "stateMutability": "view",
      "type": "function"
    },
    {
      "inputs": [],
      "name": "totalSupply",
      "outputs": [
        {
          "internalType": "uint256",
          "name": "",
          "type": "uint256"
        }
      ],
      "stateMutability": "view",
      "type": "function"
    },
    {
      "inputs": [
        {
          "internalType": "address",
          "name": "to",
          "type": "address"
        },
        {
          "internalType": "uint256",
          "name": "value",
          "type": "uint256"
        }
      ],
      "name": "transfer",
      "outputs": [
        {
          "internalType": "bool",
          "name": "",
          "type": "bool"
        }
      ],
      "stateMutability": "nonpayable",
      "type": "function"
    },
    {
      "inputs": [
        {
          "internalType": "address",
          "name": "from",
          "type": "address"
        },
        {
          "internalType": "address",
          "name": "to",
          "type": "address"
        },
        {
          "internalType": "uint256",
          "name": "value",
          "type": "uint256"
        }
      ],
      "name": "transferFrom",
      "outputs": [
        {
          "internalType": "bool",
          "name": "",
          "type": "bool"
        }
      ],
      "stateMutability": "nonpayable",
      "type": "function"
    },
    {
      "inputs": [
        {
          "internalType": "uint256",
          "name": "assets",
          "type": "uint256"
        },
        {
          "internalType": "address",
          "name": "receiver",
          "type": "address"
        },
        {
          "internalType": "address",
          "name": "owner",
          "type": "address"
        }
      ],
      "name": "withdraw",
      "outputs": [
        {
          "internalType": "uint256",
          "name": "",
          "type": "uint256"
        }
      ],
      "stateMutability": "nonpayable",
      "type": "function"
    }
  ],
  "bytecode": "0x60c060405261251c6005553480156200001757600080fd5b506040516200242e3803806200242e8339810160408190526200003a91620002ec565b83846001600160a01b03166306fdde036040518163ffffffff1660e01b8152600401600060405180830381865afa1580156200007a573d6000803e3d6000fd5b505050506040513d6000823e601f3d908101601f19168201604052620000a4919081019062000385565b604051602001620000b691906200043d565b604051602081830303815290604052856001600160a01b03166395d89b416040518163ffffffff1660e01b8152600401600060405180830381865afa15801562000104573d6000803e3d6000fd5b505050506040513d6000823e601f3d908101601f191682016040526200012e919081019062000385565b60405160200162000140919062000476565b60408051601f1981840301815291905260036200015e838262000532565b5060046200016d828262000532565b5050506000806200018483620001ea60201b60201c565b91509150816200019657601262000198565b805b60ff1660a05250506001600160a01b03908116608052600680546001600160a01b0319908116958316959095179055600780548516938216939093179092556008805490931691161790555062000636565b60408051600481526024810182526020810180516001600160e01b031663313ce56760e01b17905290516000918291829182916001600160a01b038716916200023391620005fe565b600060405180830381855afa9150503d806000811462000270576040519150601f19603f3d011682016040523d82523d6000602084013e62000275565b606091505b50915091508180156200028a57506020815110155b15620002c257600081806020019051810190620002a891906200061c565b905060ff8111620002c0576001969095509350505050565b505b5060009485945092505050565b80516001600160a01b0381168114620002e757600080fd5b919050565b600080600080608085870312156200030357600080fd5b6200030e85620002cf565b93506200031e60208601620002cf565b92506200032e60408601620002cf565b91506200033e60608601620002cf565b905092959194509250565b634e487b7160e01b600052604160045260246000fd5b60005b838110156200037c57818101518382015260200162000362565b50506000910152565b6000602082840312156200039857600080fd5b81516001600160401b0380821115620003b057600080fd5b818401915084601f830112620003c557600080fd5b815181811115620003da57620003da62000349565b604051601f8201601f19908116603f0116810190838211818310171562000405576200040562000349565b816040528281528760208487010111156200041f57600080fd5b620004328360208301602088016200035f565b979650505050505050565b6e02132b930aa3930bc102b30bab63a1608d1b8152600082516200046981600f8501602087016200035f565b91909101600f0192915050565b620c4e8f60eb1b815260008251620004968160038501602087016200035f565b9190910160030192915050565b600181811c90821680620004b857607f821691505b602082108103620004d957634e487b7160e01b600052602260045260246000fd5b50919050565b601f8211156200052d57600081815260208120601f850160051c81016020861015620005085750805b601f850160051c820191505b81811015620005295782815560010162000514565b5050505b505050565b81516001600160401b038111156200054e576200054e62000349565b62000566816200055f8454620004a3565b84620004df565b602080601f8311600181146200059e5760008415620005855750858301515b600019600386901b1c1916600185901b17855562000529565b600085815260208120601f198616915b82811015620005cf57888601518255948401946001909101908401620005ae565b5085821015620005ee5787850151600019600388901b60f8161c191681555b5050505050600190811b01905550565b60008251620006128184602087016200035f565b9190910192915050565b6000602082840312156200062f57600080fd5b5051919050565b60805160a051611d81620006ad600039600050506000818161030701528181610563015281816105e7015281816107790152818161089901528181610d1101528181610d5301528181610e7001528181611029015281816110ba0152818161116f015281816111f501526115f10152611d816000f3fe608060405234801561001057600080fd5b506004361061023d5760003560e01c806394bf804d1161013b578063c63d75b6116100b8578063d905777e1161007c578063d905777e146104ce578063dd62ed3e146104e1578063ef8b30f71461048d578063f77c47911461051a578063f88979451461052d57600080fd5b8063c63d75b61461033f578063c6e6f5921461048d578063ce96cb77146104a0578063d33219b4146104b3578063d389800f146104c657600080fd5b8063b3d7f6b9116100ff578063b3d7f6b91461042e578063b460af9414610441578063ba08765214610454578063bc157ac114610467578063bdacb3031461047a57600080fd5b806394bf804d146103da57806395d89b41146103ed5780639f40a7b3146103f5578063a9059cbb14610408578063ab033ea91461041b57600080fd5b806338d52e0f116101c95780635aa6e6751161018d5780635aa6e6751461036f5780636e553f651461038257806370a082311461039557806381d189f2146103be57806392eefe9b146103c757600080fd5b806338d52e0f14610305578063402d267d1461033f57806345dc3dd81461035457806348a0d754146103675780634cdad5061461028757600080fd5b8063095ea7b311610210578063095ea7b31461029a5780630a28a477146102bd57806318160ddd146102d057806323b872dd146102d8578063313ce567146102eb57600080fd5b8063018ee9b71461024257806301e1d1141461025757806306fdde031461027257806307a2d13a14610287575b600080fd5b6102556102503660046118e2565b610536565b005b61025f6105d1565b6040519081526020015b60405180910390f35b61027a610685565b6040516102699190611930565b61025f610295366004611963565b610717565b6102ad6102a83660046118e2565b61072a565b6040519015158152602001610269565b61025f6102cb366004611963565b610742565b60025461025f565b6102ad6102e636600461197c565b61074f565b6102f3610775565b60405160ff9091168152602001610269565b7f00000000000000000000000000000000000000000000000000000000000000005b6040516001600160a01b039091168152602001610269565b61025f61034d3660046119b8565b5060001990565b610255610362366004611963565b6107f9565b61025f61088c565b600654610327906001600160a01b031681565b61025f6103903660046119d3565b610939565b61025f6103a33660046119b8565b6001600160a01b031660009081526020819052604090205490565b61025f61271081565b6102556103d53660046119b8565b61096d565b61025f6103e83660046119d3565b610a11565b61027a610a2f565b61025f6104033660046119ff565b610a3e565b6102ad6104163660046118e2565b610a78565b6102556104293660046119b8565b610a86565b61025f61043c366004611963565b610b2a565b61025f61044f366004611a43565b610b37565b61025f610462366004611a43565b610b8f565b61025f610475366004611a7f565b610bde565b6102556104883660046119b8565b610c17565b61025f61049b366004611963565b610cbb565b61025f6104ae3660046119b8565b610cc8565b600754610327906001600160a01b031681565b610255610cec565b61025f6104dc3660046119b8565b610dd6565b61025f6104ef366004611aa4565b6001600160a01b03918216600090815260016020908152604080832093909416825291909152205490565b600854610327906001600160a01b031681565b61025f60055481565b6008546001600160a01b03163314610561576040516323019e6760e01b815260040160405180910390fd5b7f00000000000000000000000000000000000000000000000000000000000000006001600160a01b0316826001600160a01b0316036105b3576040516334553fdd60e11b815260040160405180910390fd5b6008546105cd906001600160a01b03848116911683610df4565b5050565b6008546000906001600160a01b03166370a082317f00000000000000000000000000000000000000000000000000000000000000006040516001600160e01b031960e084901b1681526001600160a01b039091166004820152602401602060405180830381865afa15801561064a573d6000803e3d6000fd5b505050506040513d601f19601f8201168201806040525081019061066e9190611ace565b610676610e58565b6106809190611afd565b905090565b60606003805461069490611b10565b80601f01602080910402602001604051908101604052809291908181526020018280546106c090611b10565b801561070d5780601f106106e25761010080835404028352916020019161070d565b820191906000526020600020905b8154815290600101906020018083116106f057829003601f168201915b5050505050905090565b6000610724826000610ee3565b92915050565b600033610738818585610f1d565b5060019392505050565b6000610724826001610f2a565b60003361075d858285610f5a565b610768858585610fc5565b60019150505b9392505050565b60007f00000000000000000000000000000000000000000000000000000000000000006001600160a01b031663313ce5676040518163ffffffff1660e01b8152600401602060405180830381865afa1580156107d5573d6000803e3d6000fd5b505050506040513d601f19601f820116820180604052508101906106809190611b4a565b6006546001600160a01b0316331461082457604051632d5be4cb60e21b815260040160405180910390fd5b612710811115610847576040516364da6b5d60e11b815260040160405180910390fd5b600580549082905560408051828152602081018490527f9ee95d6b51b1efebc66f343e5cd95304e645c9889665ba3beeefc7697135fa9b910160405180910390a15050565b60006127106005546108bb7f000000000000000000000000000000000000000000000000000000000000000090565b6040516370a0823160e01b81523060048201526001600160a01b0391909116906370a0823190602401602060405180830381865afa158015610901573d6000803e3d6000fd5b505050506040513d601f19601f820116820180604052508101906109259190611ace565b61092f9190611b6d565b6106809190611b9a565b600060001961094c565b60405180910390fd5b600061095785610cbb565b905061096533858784611024565b949350505050565b6007546001600160a01b031633146109985760405163656a6d1560e11b815260040160405180910390fd5b6001600160a01b0381166109bf5760405163d92e233d60e01b815260040160405180910390fd5b600880546001600160a01b038381166001600160a01b0319831681179093556040519116919082907f6aef1fb5b23d0e109fc7f2b0601019e1edbacd177e31a441ec8548e8dd14f0f790600090a35050565b60006000196000610a2185610b2a565b905061096533858388611024565b60606004805461069490611b10565b6000610a4b858585610b8f565b905081811015610965576040516377b6c98360e01b81526004810182905260248101839052604401610943565b600033610738818585610fc5565b6006546001600160a01b03163314610ab157604051632d5be4cb60e21b815260040160405180910390fd5b6001600160a01b038116610ad85760405163d92e233d60e01b815260040160405180910390fd5b600680546001600160a01b038381166001600160a01b0319831681179093556040519116919082907f3aaaebeb4821d6a7e5c77ece53cff0afcc56c82add2c978dbbb7f73e84cbcfd290600090a35050565b6000610724826001610ee3565b600080610b4383610cc8565b905080851115610b6c57828582604051633fa733bb60e21b815260040161094393929190611bae565b6000610b7786610742565b9050610b8633868689856110b6565b95945050505050565b600080610b9b83610dd6565b905080851115610bc457828582604051632e52afbb60e21b815260040161094393929190611bae565b6000610bcf86610717565b9050610b86338686848a6110b6565b6000610bea8484610939565b90508181101561076e5760405163096bcf2d60e01b81526004810182905260248101839052604401610943565b6007546001600160a01b03163314610c425760405163656a6d1560e11b815260040160405180910390fd5b6001600160a01b038116610c695760405163d92e233d60e01b815260040160405180910390fd5b600780546001600160a01b038381166001600160a01b0319831681179093556040519116919082907f0b16e94338dda95fa1e5c779ff12c1c00489fca89839afd381c4c5faffd6e2a190600090a35050565b6000610724826000610f2a565b6001600160a01b038116600090815260208190526040812054610724906000610ee3565b6000610cf661088c565b90508015610dd357600854610d40906001600160a01b0316827f00000000000000000000000000000000000000000000000000000000000000006001600160a01b03169190610df4565b6008546001600160a01b031663b02bf4b97f00000000000000000000000000000000000000000000000000000000000000006040516001600160e01b031960e084901b1681526001600160a01b03909116600482015260248101849052604401600060405180830381600087803b158015610dba57600080fd5b505af1158015610dce573d6000803e3d6000fd5b505050505b50565b6001600160a01b038116600090815260208190526040812054610724565b6040516001600160a01b03838116602483015260448201839052610e5391859182169063a9059cbb906064015b604051602081830303815290604052915060e01b6020820180516001600160e01b0383818316178352505050506112bf565b505050565b6040516370a0823160e01b81523060048201526000907f00000000000000000000000000000000000000000000000000000000000000006001600160a01b0316906370a0823190602401602060405180830381865afa158015610ebf573d6000803e3d6000fd5b505050506040513d601f19601f820116820180604052508101906106809190611ace565b600061076e610ef06105d1565b610efb906001611afd565b610f076000600a611cb3565b600254610f149190611afd565b85919085611322565b610e538383836001611371565b600061076e610f3a82600a611cb3565b600254610f479190611afd565b610f4f6105d1565b610f14906001611afd565b6001600160a01b038381166000908152600160209081526040808320938616835292905220546000198114610fbf5781811015610fb057828183604051637dc7a0d960e11b815260040161094393929190611bae565b610fbf84848484036000611371565b50505050565b6001600160a01b038316610fef57604051634b637e8f60e11b815260006004820152602401610943565b6001600160a01b0382166110195760405163ec442f0560e01b815260006004820152602401610943565b610e53838383611438565b6110507f000000000000000000000000000000000000000000000000000000000000000085308561154f565b61105a8382611588565b826001600160a01b0316846001600160a01b03167fdcbc1c05240f31ff3ad067ef1ee35ce4997762752e3a095284754544f4c709d784846040516110a8929190918252602082015260400190565b60405180910390a350505050565b60007f00000000000000000000000000000000000000000000000000000000000000006040516370a0823160e01b81523060048201526001600160a01b0391909116906370a0823190602401602060405180830381865afa15801561111f573d6000803e3d6000fd5b505050506040513d601f19601f820116820180604052508101906111439190611ace565b9050828110156112aa5760006111598285611cc2565b6008549091506001600160a01b031663f3fef3a37f00000000000000000000000000000000000000000000000000000000000000006040516001600160e01b031960e084901b1681526001600160a01b03909116600482015260248101849052604401600060405180830381600087803b1580156111d657600080fd5b505af11580156111ea573d6000803e3d6000fd5b5050505060006112177f000000000000000000000000000000000000000000000000000000000000000090565b6040516370a0823160e01b81523060048201526001600160a01b0391909116906370a0823190602401602060405180830381865afa15801561125d573d6000803e3d6000fd5b505050506040513d601f19601f820116820180604052508101906112819190611ace565b9050600061128f8483611cc2565b9050828110156112a6576112a38185611afd565b95505b5050505b6112b786868686866115be565b505050505050565b60006112d46001600160a01b0384168361167e565b905080516000141580156112f95750808060200190518101906112f79190611cd5565b155b15610e5357604051635274afe760e01b81526001600160a01b0384166004820152602401610943565b60008061133086868661168c565b905061133b83611750565b801561135757506000848061135257611352611b84565b868809115b15610b8657611367600182611afd565b9695505050505050565b6001600160a01b03841661139b5760405163e602df0560e01b815260006004820152602401610943565b6001600160a01b0383166113c557604051634a1406b160e11b815260006004820152602401610943565b6001600160a01b0380851660009081526001602090815260408083209387168352929052208290558015610fbf57826001600160a01b0316846001600160a01b03167f8c5be1e5ebec7d5bd14f71427d1e84f3dd0314c0f7b2291e5b200ac8c7c3b925846040516110a891815260200190565b6001600160a01b0383166114635780600260008282546114589190611afd565b909155506114c29050565b6001600160a01b038316600090815260208190526040902054818110156114a35783818360405163391434e360e21b815260040161094393929190611bae565b6001600160a01b03841660009081526020819052604090209082900390555b6001600160a01b0382166114de576002805482900390556114fd565b6001600160a01b03821660009081526020819052604090208054820190555b816001600160a01b0316836001600160a01b03167fddf252ad1be2c89b69c2b068fc378daa952ba7f163c4a11628f55a4df523b3ef8360405161154291815260200190565b60405180910390a3505050565b6040516001600160a01b038481166024830152838116604483015260648201839052610fbf9186918216906323b872dd90608401610e21565b6001600160a01b0382166115b25760405163ec442f0560e01b815260006004820152602401610943565b6105cd60008383611438565b826001600160a01b0316856001600160a01b0316146115e2576115e2838683610f5a565b6115ec838261177d565b6116177f00000000000000000000000000000000000000000000000000000000000000008584610df4565b826001600160a01b0316846001600160a01b0316866001600160a01b03167ffbde797d201c681b91056529119e0b02407c7bb96a4a2c75c01fc9667232c8db858560405161166f929190918252602082015260400190565b60405180910390a45050505050565b606061076e838360006117b3565b60008383028160001985870982811083820303915050806000036116c3578382816116b9576116b9611b84565b049250505061076e565b8084116116e35760405163227bc15360e01b815260040160405180910390fd5b6000848688096000868103871696879004966002600389028118808a02820302808a02820302808a02820302808a02820302808a02820302808a02909103029181900381900460010186841190950394909402919094039290920491909117919091029150509392505050565b6000600282600381111561176657611766611cf7565b6117709190611d0d565b60ff166001149050919050565b6001600160a01b0382166117a757604051634b637e8f60e11b815260006004820152602401610943565b6105cd82600083611438565b6060814710156117d85760405163cd78605960e01b8152306004820152602401610943565b600080856001600160a01b031684866040516117f49190611d2f565b60006040518083038185875af1925050503d8060008114611831576040519150601f19603f3d011682016040523d82523d6000602084013e611836565b606091505b5091509150611367868383606082611856576118518261189d565b61076e565b815115801561186d57506001600160a01b0384163b155b1561189657604051639996b31560e01b81526001600160a01b0385166004820152602401610943565b508061076e565b8051156118ad5780518082602001fd5b604051630a12f52160e11b815260040160405180910390fd5b80356001600160a01b03811681146118dd57600080fd5b919050565b600080604083850312156118f557600080fd5b6118fe836118c6565b946020939093013593505050565b60005b8381101561192757818101518382015260200161190f565b50506000910152565b602081526000825180602084015261194f81604085016020870161190c565b601f01601f19169190910160400192915050565b60006020828403121561197557600080fd5b5035919050565b60008060006060848603121561199157600080fd5b61199a846118c6565b92506119a8602085016118c6565b9150604084013590509250925092565b6000602082840312156119ca57600080fd5b61076e826118c6565b600080604083850312156119e657600080fd5b823591506119f6602084016118c6565b90509250929050565b60008060008060808587031215611a1557600080fd5b84359350611a25602086016118c6565b9250611a33604086016118c6565b9396929550929360600135925050565b600080600060608486031215611a5857600080fd5b83359250611a68602085016118c6565b9150611a76604085016118c6565b90509250925092565b600080600060608486031215611a9457600080fd5b833592506119a8602085016118c6565b60008060408385031215611ab757600080fd5b611ac0836118c6565b91506119f6602084016118c6565b600060208284031215611ae057600080fd5b5051919050565b634e487b7160e01b600052601160045260246000fd5b8082018082111561072457610724611ae7565b600181811c90821680611b2457607f821691505b602082108103611b4457634e487b7160e01b600052602260045260246000fd5b50919050565b600060208284031215611b5c57600080fd5b815160ff8116811461076e57600080fd5b808202811582820484141761072457610724611ae7565b634e487b7160e01b600052601260045260246000fd5b600082611ba957611ba9611b84565b500490565b6001600160a01b039390931683526020830191909152604082015260600190565b600181815b80851115611c0a578160001904821115611bf057611bf0611ae7565b80851615611bfd57918102915b93841c9390800290611bd4565b509250929050565b600082611c2157506001610724565b81611c2e57506000610724565b8160018114611c445760028114611c4e57611c6a565b6001915050610724565b60ff841115611c5f57611c5f611ae7565b50506001821b610724565b5060208310610133831016604e8410600b8410161715611c8d575081810a610724565b611c978383611bcf565b8060001904821115611cab57611cab611ae7565b029392505050565b600061076e60ff841683611c12565b8181038181111561072457610724611ae7565b600060208284031215611ce757600080fd5b8151801515811461076e57600080fd5b634e487b7160e01b600052602160045260246000fd5b600060ff831680611d2057611d20611b84565b8060ff84160691505092915050565b60008251611d4181846020870161190c565b919091019291505056fea2646970667358221220834d4388fa38e4db4c2828c09c4e8b86231903113918597a1c37bbe6961d512c64736f6c63430008140033",
  "linkReferences": {},
  "deployedLinkReferences": {}
}